:100000000C9417080C9434080C9434080C9434089D
:100010000C9434080C9434080C9434080C94340870
:100020000C9434080C9434080C9434080C94340860
:100030000C9434080C9434080C9434080C94340850
:100040000C9434080C9434080C9434080C94340840
:100050000C9434080C9434080C9434080C94340830
:100060000C9434080C9434080000000000000000D8
:10007000002F000000000700070000147F147F1409
:1000800000242A7F2A12006264081323003649558F
:10009000225000000503000000001C224100000067
:1000A00041221C000014083E08140008083E0808FD
:1000B000000000A060000008080808080000606058
:1000C0000000002010080402003E5149453E000097
:1000D000427F4000004261514946002141454B3179
:1000E000001814127F10002745454539003C4A4945
:1000F00049300001710905030036494949360006B7
:100100004949291E0000363600000000563600001E
:100110000008142241000014141414140000412299
:10012000140800020151090600324959513E007C71
:100130001211127C007F49494936003E414141225B
:10014000007F4141221C007F49494941007F090944
:100150000901003E4149497A007F0808087F0000F4
:10016000417F4100002040413F01007F08142241AF
:10017000007F40404040007F020C027F007F040867
:10018000107F003E4141413E007F09090906003EC3
:100190004151215E007F09192946004649494931EC
:1001A0000001017F0101003F4040403F001F20400F
:1001B000201F003F4038403F0063140814630007CD
:1001C0000870080700615149454300007F41410024
:1001D00000552A552A55000041417F0000040201C4
:1001E00002040040404040400000010204000020A2
:1001F00054545478007F48444438003844444420E0
:1002000000384444487F00385454541800087E098C
:1002100001020018A4A4A47C007F08040478000054
:10022000447D4000004080847D00007F1028440011
:100230000000417F4000007C04180478007C080422
:10024000047800384444443800FC2424241800185E
:10025000242418FC007C080404080048545454204A
:1002600000043F444020003C4040207C001C2040D3
:10027000201C003C4030403C004428102844001C16
:10028000A0A0A07C004464544C44000008774100C6
:100290000000006300000000417708000008040827
:1002A0000804003A4040207A003D4040403D002193
:1002B00054545479007D1211127D0039444444395C
:1002C000003D4242423D000205020000007E01491D
:1002D0005573007C1010081C003048204830005C2A
:1002E0006202625CBC5F9C60A4618462B6639664D7
:1002F000B0659F66B5678968A969FFFFAE2000B049
:10030000C8001040813FA1A6A83FA4D300D5F0D9D2
:1003100022DA12DB208D1424924924924924924936
:1003200024924924924924492492492492492492AE
:100330004924924924924924924010492492490424
:10034000104924924924924924954500092490514A
:100350004502492492492424922010554041050029
:100360000028924924924952494542002A14402AC1
:100370005242249249249209242810A50141148054
:10038000000892249249246492828A08541221120D
:10039000954049492492491248A840A100848440CC
:1003A000201504244924924925152A084A201015AD
:1003B000048052929249245248A24955208A4540CD
:1003C00051250048489249249214000094001012CC
:1003D00004104A229248924925491042024902419A
:1003E000414211080425242490A24A904800400864
:1003F00014088442A10011492514A44A80000880F1
:1004000080A2209014554A249242129250800004F7
:1004100002088A0501001052492840040200000029
:1004200010A220A050554A09248000490000000075
:1004300000088A15050022649202091220000010AB
:100440000000214050491412482040080492210025
:100450000000942A8A94A249208400508000040459
:1004600000024A9251224952480012801041004035
:10047000845421490A491424821100520208200997
:1004800029011424A494A249104022804000042091
:100490009290029252421424800204000891108229
:1004A000480088A48929494902081292000040099D
:1004B00022040049248A5224204049004404002494
:1004C0009040222492510852810104010090048935
:1004D00000088092490A52080808292410012012B5
:1004E0004420094924A12565202012000204004966
:1004F0000081002492549012810124008040091050
:1005000010042549248A4A485004022411088024F2
:1005100002101224924124528A20100004001090EC
:1005200080408952492A9224508081024010422002
:1005300011025489249049492508042000420002F0
:1005400000012244924A9224925220042400008006
:10055000441494A924924849492480808008921028
:10056000008922124924922424912A100120000299
:100570001052494924924952924A44021001000003
:100580004289249249249209492129404204249411
:10059000092492492492486424949208004000025D
:1005A000A492492492492512924A448088008049A5
:1005B00012492492492492494921294201121204E4
:1005C000A9249249249248522494842000000022B5
:1005D000449249249249252492452950488041015A
:1005E0001249249249249049249092040212080846
:1005F000A924924924924A24924A49510000002099
:10060000049249249249244924929248204122018B
:1006100052492492492492249248492409080044CA
:10062000149249249249245249252491000008003B
:10063000024924924892490924929248402241005A
:1006400050000249252492524924492212000024D4
:100650000492492490912449244924904091248172
:10066000000014924A4A4924929249250804001035
:1006700052494249229124524849249022409244AE
:1006800000022924944A49092524924A8012000133
:10069000252894924291246491124924A900492466
:1006A00000024249284A49124A492492004900005E
:1006B000908929248A91244921249249540012487E
:1006C00004249492512492524A9249249124400144
:1006D000108242490A4924249049249248010488FE
:1006E000400494925124924925249249209010204C
:1006F000044249248A49242449524924920200028E
:1007000011092492512492491209249240084480EC
:10071000800492492492492492492492492492497E
:10072000249249249249244924924924924800045D
:100730009249249249249224924924924922AAA0BF
:100740002492492492492449249249249208000A77
:1007500089249200000092249249249248A1248086
:10076000224000AAAAAA4952492492492204002AF6
:100770000815540000012409249249249048AA80B5
:10078000A28002AAA55492649249249209020024EC
:10079000082AA8000802481249221200A25094898F
:1007A00042400124912925492488A0AA0804211047
:1007B00010124888444A485248240A00A149044576
:1007C00045410422112125248282A0AA0410501040
:1007D00010082000849490492828080091220500E0
:1007E00040020100124A4A2482824292040080445C
:1007F000024000240121224928289044A0921000A0
:10080000800000008094942492820A9214000100D7
:1008100000000242124A4252492951294000000078
:10082000040040080021290924922480112400009A
:1008300000010000404A4A649249400044004000E0
:10084000109012400911201249241225088100013C
:100850000200480900249549249280885210088893
:100860000004202020124852492448010900200099
:1008700048408A0004892524924900205289022296
:100880000108244480149249249002040840000086
:10089000000012001102482492402080A500908898
:1008A00090220910000925492494841012A80200FE
:1008B000020092824444902492400002484208116F
:1008C00008480840000A4A5249221080252040402A
:1008D00020002508210124092490021152900002D1
:1008E00000821201045492649240800088421208EF
:1008F00002084020112A491249281088529040408D
:1009000048000084A4812449248202022441000179
:1009100000410812125492524928402092A80424FF
:1009200001082244A5252424924A08004900108089
:10093000100001291090924924910109125480005D
:1009400040222A924A4A49249124A42001200212DA
:1009500004800444A5252449249248000400204032
:10096000000452921090922492492284900900002F
:10097000901008494A4A49524924945000401208AC
:100980000240A524A5252409249249254904404173
:1009900000001292109092649249249224A00000C8
:1009A000210448494A4A49124924924952220912CB
:1009B00004102524A52224492492492409504000EA
:1009C00000415292109549524924924952000040E8
:1009D000900008494A4824249249249289522408C4
:1009E0000204A524A522924924924924548080829D
:1009F000084052921094A424924924928248000004
:100A0000400288494A4212492492492454801220C3
:100A100001105292252949249249249292024009B8
:100A2000100224495094A452492492484948008015
:100A3000022149248A421209249249220000080016
:100A400088040492249549649249248892212112B1
:100A5000008092495248A412492492500084000018
:100A600044240924892412492492490A52108924D1
:100A70001080A4922492A952490924A10042200185
:100A800002121249524904249252491492000494C9
:100A9000480149248924A9492489224A404920003F
:100AA0000094249224924424912494A1240004913B
:100AB0002202924952492A492492421491249000D8
:100AC0000824A492092491249249294A400001242F
:100AD000808212495249245249248A2124922400B6
:100AE00022094924892492092492515490000049F2
:100AF0000024A4925249246492490A0A404488007E
:100B000012021249092492124924A4A122000104CC
:100B100040494924A4924924924924924924924963
:100B200024924924924924492492492492492492A6
:100B30004924924924924924924924924924924971
:100B40002492492492492449249249249200000481
:100B500092492400012492249249249248AAAAA0EE
:100B60002492015554924952492492492200000A84
:100B70008000A800002492092492492490924920E0
:100B80002AAA05552A9224649249249244200009F5
:100B90000000A0004089491249221244110AAAA269
:100BA000555209248A522449248949114040000899
:100BB00000044442212492524924A4880A14A542E4
:100BC000A49111108A92492492521052A141081006
:100BD0000840000450492449248945000810212474
:100BE000820840210A9249249124905542450800E8
:100BF00020A0020024492449049205001110424912
:100C000000000008092492245208504A484210006B
:100C1000000000810492495208A1041082004000A3
:100C200004000020224924094208514220100000FB
:100C3000000004040124926490850414944200008E
:100C400001012080889249124A2051490000008009
:100C5000102400100024924921550A20220000018E
:100C600002004902211248524A0950008892481055
:100C7000004020000424922491522114224002407A
:100C800048091448801249492A494A4295242004B7
:100C90000100020010892424849224A94890800134
:100CA000002229020204924929249214244809208E
:100CB00024000490401249249249494292A400041D
:100CC0000088820008492452492424A9491240403E
:100CD00080001484800492092492921424890902C9
:100CE0001222001002A924649249494292548010B1
:100CF0000000424028449212492424A949220400B9
:100D0000411008028A924949249290042491404457
:100D1000080200085129245249244210124A1100A5
:100D200080404125248492249249084081248008EF
:100D300002080848925248492492800208924420AE
:100D40002001029249292524924821000024900183
:100D50000440204924849049249284204402408005
:100D60000008052492524A249249100400888012F7
:100D700021010092492924524924A1011000044074
:100D8000042025252484920924921448022110006D
:100D9000800400909252496492494A8040040108BC
:100DA00010808A4A492924124924A055088020210C
:100DB00002100125248492492492152442108000B7
:100DC00008022490925249524924A492A9420484D0
:100DD0004000052524892424924912481429001032
:100DE00000909092492492492492492542842200FD
:100DF00012020A49249249249124A49254520022B6
:100E00004000252492492449249212491294488092
:100E1000004810924924922492494924A440000099
:100E200009014A49249249524924524912A9020906
:100E3000200025249249240924928924400020205E
:100E400000241092492492649248524809120400E6
:100E500084814A4924924912492509212040408A27
:100E6000101011249249244924915248040412205C
:100E700042444A9249249252492489254121000141
:100E80000801204924924924924A524910084924D1
:100E900001244A924924924924910924892100007D
:100EA0004802924924924824924A54924000249243
:100EB000009449249249254924912249291200008D
:100EC00048029249249248249248949240404449CE
:100ED00002484924924925524925424922041100D9
:100EE000100524924924900924922924801080100E
:100EF0008112924924924A64924894924900044291
:100F00000848492492492412492542490044400096
:100F100020052492492492332E205A616B6F6E6310
:100F20007A2070726F6772616D00322E20416E6997
:100F30006D61636A6100312E204F62736C75676169
:100F400020736572776100313600E2808FE2808F16
:100F5000E2808EE2A08000332E204175746F6D61B7
:100F60007479637A6E79207472796200322E205718
:100F70007A676C65646E79206B617400312E204253
:100F8000657A77676C65646E79206B6174004F6277
:100F9000736C7567612073657277613A007A616B73
:100FA0006F6E637A79632E0050727A7974727A79EF
:100FB0006D616A2058206162790057796B6F6E7598
:100FC0006A65206175746F6D617400506F64616A49
:100FD00020776172746F7363206B6174613A0050A3
:100FE0006F64616A20776172746F7363206B6174E0
:100FF000613A00494E46494E4954594E414ECDCC76
:10100000CC3D0AD7233C17B7D13877CC2B329595F6
:10101000E6241FB14F0A000020410000C8420040F2
:101020001C4620BCBE4CCA1B0E5AAEC59D74112472
:101030001FBECFEFD8E0DEBFCDBF11E0A0E0B1E032
:10104000E2EEF9E202C005900D92A231B107D9F7A4
:1010500015E0A2E1B1E001C01D92A731B107E1F7AF
:101060000E9477120C94EF140C940000A0E0B0E002
:10107000ECE3F8E00C94C612DC012B01FA019C9120
:10108000923008F439C1EB018881823008F433C111
:10109000943069F4843009F02FC111969C91119716
:1010A0008981981709F428C1A1E0B1E025C18430F5
:1010B00009F421C18230A9F4923009F01DC19A01CE
:1010C000AD0188E0EA010990AE01E90109929E01B3
:1010D0008150C1F7E201898111969C918923818316
:1010E00008C1923009F407C112962D903C901397D5
:1010F000EB018A819B811496AD90BD90CD90DC90E0
:101100001797EC80FD800E811F819101281B390B00
:10111000B90137FF04C066277727621B730B603263
:1011200071050CF061C0121613066CF53701480109
:10113000062E04C096948794779467940A94D2F705
:1011400021E030E040E050E004C0220F331F441F94
:10115000551F6A95D2F721503040404050402E2113
:101160003F2140235123211531054105510521F02F
:1011700021E030E040E050E079018A01E628F728DC
:10118000082919293CC0232BD1F1260E371E350121
:101190004601062E04C096948794779467940A9427
:1011A000D2F721E030E040E050E004C0220F331FCE
:1011B000441F551F6A95D2F721503040404050409F
:1011C0002A213B214C215D21211531054105510585
:1011D00021F021E030E040E050E059016A01A6280A
:1011E000B728C828D9280BC0821593052CF01C01FC
:1011F000AA24BB24650103C0EE24FF2487011196B5
:101200009C91D20111968C91981709F445C09923AD
:1012100039F0A80197012A193B094C095D0906C05C
:10122000A60195012E193F09400B510B57FD08C02F
:1012300011823382228224833583468357831DC0E3
:1012400081E081833382228288279927DC01821BF7
:10125000930BA40BB50B84839583A683B7830DC032
:10126000220F331F441F551F248335834683578322
:101270008281938101979383828324813581468182
:101280005781DA01C9010197A109B1098F5F9F4F09
:10129000AF4FBF4328F30BC0918333822282EA0C05
:1012A000FB1C0C1D1D1DE482F5820683178383E061
:1012B0008083248135814681578157FF1AC0C90137
:1012C000AA2797FDA095BA2F81709070A070B0707A
:1012D0005695479537952795822B932BA42BB52BA5
:1012E00084839583A683B7838281938101969383B8
:1012F0008283DF0101C0D201CD01CDB7DEB7E2E1CB
:101300000C94E212A0E2B0E0E8E8F9E00C94D2120A
:1013100069837A838B839C832D833E834F83588795
:10132000E9E0EE2EF12CEC0EFD1ECE010196B70188
:1013300003D38E010F5E1F4FCE010596B801FCD27C
:101340008A8991E089278A8BC701B801AE01475E7F
:101350005F4F8CDE1CD2A096E6E00C94EE12A0E269
:10136000B0E0E5EBF9E00C94D21269837A838B83C9
:101370009C832D833E834F835887F9E0EF2EF12C19
:10138000EC0EFD1ECE010196B701D6D28E010F5E86
:101390001F4FCE010596B801CFD2C701B801AE01EB
:1013A000475E5F4F63DEF3D1A096E6E00C94EE1249
:1013B000A0E2B0E0EEEDF9E00C94C61269837A8306
:1013C0008B839C832D833E834F835887CE01019668
:1013D000BE01675F7F4FB0D2CE010596BE016F5E42
:1013E0007F4FAAD29985923088F089898230C8F0DF
:1013F000943019F4823051F404C0843029F49230CE
:1014000081F481E091E0C6C0923049F420E09A85F1
:101410008A89981321E02A87CE010996BBC08230C1
:1014200049F420E09A858A89981321E02A8BCE011D
:101430004196B0C02D843E844F8458886D887E8844
:101440008F88988CEE24FF248701AA24BB24650191
:1014500040E050E060E070E0E0E0F0E0C101817069
:101460009070892BE9F0E60CF71C081D191D9A01F4
:10147000AB012A0D3B1D4C1D5D1D80E090E0A0E0FE
:10148000B0E0E614F7040805190520F481E090E0C7
:10149000A0E0B0E0BA01A901480F591F6A1F7B1FE5
:1014A000AA0CBB1CCC1CDD1C97FE08C081E090E0A0
:1014B000A0E0B0E0A82AB92ACA2ADB2A3196E03295
:1014C000F10549F0660C771C881C991C56944794CA
:1014D00037942794C3CFFA85EA892B893C898B8579
:1014E0009C85280F391F2E5F3F4F17C0CA0181709E
:1014F0009070892B61F016950795F794E79480E03A
:1015000090E0A0E0B0E8E82AF92A0A2B1B2B769598
:101510006795579547952F5F3F4F77FDE7CF0CC0F5
:10152000440F551F661F771F17FD4160EE0CFF1C0F
:10153000001F111F21503040403090E0590790E0CB
:10154000690790E4790760F32B8F3C8FDB01CA01B8
:101550008F779070A070B07080349105A105B105AF
:1015600061F447FD0AC0E114F1040105110529F0F9
:10157000405C5F4F6F4F7F4F40781A8EFE1711F01F
:1015800081E08A8F4D8F5E8F6F8F78A383E0898F84
:10159000CE014996FCD0A096E2E10C94E212A8E1BB
:1015A000B0E0E4EDFAE0FAC769837A838B839C8329
:1015B0002D833E834F835887B9E0EB2EF12CEC0E40
:1015C000FD1ECE010196B701B7D18E010F5E1F4FF0
:1015D000CE010596B801B0D12985223008F47EC02D
:1015E0003989323010F4B8017CC08A859A898927FC
:1015F0008A87243011F0223031F4231709F06EC0AD
:1016000061E071E06EC0343039F41D861E861F869D
:10161000188A1C861B8604C0323021F484E0898736
:10162000B7015FC02B853C858B899C89281B390BB2
:101630003C872B87ED84FE840F851889AD88BE8892
:10164000CF88D88CEA14FB040C051D0540F4EE0C81
:10165000FF1C001F111F215030403C872B8720E0CA
:1016600030E040E050E080E090E0A0E0B0E460E0F6
:1016700070E0EA14FB040C051D0540F0282B392B03
:101680004A2B5B2BEA18FB080C091D09B695A79598
:1016900097958795EE0CFF1C001F111F6F5F7F4F02
:1016A0006F31710531F7DA01C9018F779070A07041
:1016B000B07080349105A105B10561F427FD0AC021
:1016C000E114F1040105110529F0205C3F4F4F4F53
:1016D0005F4F20782D873E874F87588BBE01675F0D
:1016E0007F4FCB0154D06896EAE074C7ACE0B0E01D
:1016F000EBE7FBE05BC769837A838B839C83CE0136
:101700000196BE016B5F7F4F17D18D81823061F1F1
:10171000823050F1843021F48E81882351F12EC023
:101720002F81388537FD20C06E812F3131051CF0A7
:101730006623F9F023C08EE190E0821B930B29858C
:101740003A854B855C8504C0569547953795279516
:101750008A95D2F76623B1F0509540953095219542
:101760003F4F4F4F5F4F0EC020E030E040E050E071
:1017700009C02FEF3FEF4FEF5FE704C020E030E0FC
:1017800040E050E8B901CA012C96E2E02BC7DF9295
:10179000EF92FF920F931F93FC01E480F580068186
:1017A0001781D1808081823048F480E090E0A0E110
:1017B000B0E0E82AF92A0A2B1B2BA5C0843009F4D3
:1017C0009FC0823021F4EE24FF24870105C0E1147C
:1017D000F1040105110519F4E0E0F0E096C0628122
:1017E00073819FEF623879070CF05BC022E83FEF0E
:1017F000261B370B2A3131052CF020E030E040E089
:1018000050E02AC0B801A701022E04C07695679562
:10181000579547950A94D2F781E090E0A0E0B0E0B8
:1018200004C0880F991FAA1FBB1F2A95D2F70197E2
:10183000A109B1098E219F21A023B1230097A10501
:10184000B10521F081E090E0A0E0B0E09A01AB01A9
:10185000282B392B4A2B5B2BDA01C9018F7790702B
:10186000A070B07080349105A105B10539F427FF4F
:1018700009C0205C3F4F4F4F5F4F04C0215C3F4F7A
:101880004F4F5F4FE0E0F0E02030A0E03A07A0E0EB
:101890004A07A0E45A0710F0E1E0F0E079018A017C
:1018A00027C06038710564F5FB01E158FF4FD8018E
:1018B000C7018F779070A070B07080349105A1053A
:1018C000B10539F4E7FE0DC080E490E0A0E0B0E09F
:1018D00004C08FE390E0A0E0B0E0E80EF91E0A1F1C
:1018E0001B1F17FF05C016950795F794E7943196CF
:1018F00087E016950795F794E7948A95D1F705C088
:10190000EE24FF248701EFEFF0E06E2F6795662746
:101910006795902F9F77D794DD24D7948E2F869547
:10192000492F462B582F5D29B701CA011F910F91EE
:10193000FF90EF90DF900895FC01DB014081518121
:101940002281622F6F7770E0221F2227221F93814E
:10195000892F880F822B282F30E0991F9927991FF4
:1019600011969C93119721153105A9F54115510543
:101970006105710511F482E037C082E89FEF13968C
:101980009C938E9312979A01AB0167E0220F331F4D
:10199000441F551F6A95D1F783E08C930DC0220F29
:1019A000331F441F551F12968D919C9113970197D9
:1019B00013969C938E931297203080E0380780E036
:1019C000480780E4580758F314962D933D934D93A0
:1019D0005C93179708952F3F310579F44115510510
:1019E0006105710519F484E08C93089564FF03C0C8
:1019F00081E08C9312C01C9210C02F573040139678
:101A00003C932E93129783E08C9387E0440F551FED
:101A1000661F771F8A95D1F7706414964D935D9376
:101A20006D937C93179708951092B9001092B800A7
:101A300084E08093BC000895982F84EA8093BC00D2
:101A400020E230E007C02150304021F4809114059D
:101A5000816015C08091BC0087FD03C02115310550
:101A600091F79093BB0084E88093BC0020E230E0C3
:101A700009C02150304031F4809114058260809378
:101A8000140508958091BC0087FD03C02115310520
:101A900081F7089584E98093BC0008958093BB008A
:101AA00084E88093BC0020E230E009C0215030403F
:101AB00031F4809114058460809314050895809119
:101AC000BC0087FD03C02115310581F7089587FD0E
:101AD0003AC06034C0F5E62FE695E695E69590E0CD
:101AE00070E04130B9F4F0E0F695FE2FEE27F7955F
:101AF000E795E80FF91FEC5EFE4F6770707081E0AC
:101B000090E002C0880F991F6A95E2F72081282B88
:101B1000208317C0F0E0F695FE2FEE27F795E795A6
:101B2000E80FF91FEC5EFE4F6770707081E090E087
:101B300002C0880F991F6A95E2F780952081822361
:101B4000808380E0089581E008954F925F926F92C4
:101B50007F928F929F92AF92BF92CF92DF92EF923D
:101B6000FF920F931F93CF93DF93482ED62E5A01E7
:101B7000822E502E9E2CC22FD0E02796A3E0D69521
:101B8000C795AA95E1F7CC2400E010E0F0E86F2EAD
:101B9000712C2BC08F2D869586958695F801E80FC0
:101BA000F11DEA0DFB1DE4912E2F30E08F2D877083
:101BB000A30102C0559547958A95E2F72423352362
:101BC000232B21F08E2D6D2D492D06C040E099204C
:101BD00009F441E08E2D6D2D7ADFF394E394F8142F
:101BE000C8F2C394D3940C0F1D1FC51418F4E42C31
:101BF000FF24F5CFDF91CF911F910F91FF90EF90D0
:101C0000DF90CF90BF90AF909F908F907F906F901C
:101C10005F904F90089584E191E020E8DC01322F3D
:101C20001D923A95E9F780589F4FA5E084319A07B5
:101C3000A9F70895EF92FF920F931F93CF93DF932D
:101C40007C018B0188E7F8DE80E428DFC0E0D0E08B
:101C500006C0F701EC0FFD1F808120DF2196C01721
:101C6000D107B8F317DFDF91CF911F910F91FF904C
:101C7000EF900895FF920F931F93CF93DF93182F48
:101C8000092FF62E88E7D8DE80E008DF212F302FDD
:101C9000C901EC0110E003C0899100DF1F5F1F152F
:101CA000D8F3F8DEDF91CF911F910F91FF90089547
:101CB000DF93CF9300D000D0CDB7DEB7982F813817
:101CC00088F4683078F480931201609313016055B2
:101CD000698381E28A839B838FE78C83CE0101969F
:101CE00064E0C8DF0F900F900F900F90CF91DF91BD
:101CF000089596E0899F802D1124DACF80E060E07E
:101D0000F8DF84E191E060E074E094CF6F927F921D
:101D10008F929F92AF92BF92DF92EF92FF920F93BA
:101D20001F93DF93CF93CDB7DEB72C970FB6F89400
:101D3000DEBF0FBECDBF8930D9F08A3020F48830A5
:101D400009F040C005C08A3081F18D30D9F538C026
:101D50008091120190910901891B60911301C9DFE3
:101D600080E2D4DF8091120190910901891B17C094
:101D70006091120180910901482F50E0440F551FD6
:101D8000440F551F9A01260F311D88279927841B60
:101D9000950B45962817390730F4862F840F6091EC
:101DA0001301A7DFE6C085E1FACF60911301673028
:101DB00008F0DFC080910901680F80911201F1CF16
:101DC00080E0EDCFD090120129E72D1508F4D1C0A5
:101DD000803208F4CEC0982F9052E5EEF2E0E49104
:101DE0009E17D8F020E0492F50E00CC08C519D4F39
:101DF000FC01849190E080978417950711F4932F4C
:101E00000CC02F5F822F90E0880F991FFC01EB51CF
:101E1000FD4F34913F3F51F7ACC0809109012D2D0A
:101E200030E0823009F085C0245F3F4F2138310512
:101E300008F09FC08E010F5F1F4F86E0989FD00172
:101E40001124A859BF4FB80151E0A52EB12C4DE087
:101E5000842E912C8C0E9D1EFB0111821082FD019F
:101E6000849140E050E031E0632E712CE82EFF2495
:101E7000C701042E02C0959587950A94E2F780FF6A
:101E80001AC0CA01880F991F950102C0220F331F83
:101E90008A95E2F7C901FB0120813181822B932BC6
:101EA0009501062C02C0220F331F0A94E2F7822B01
:101EB000932B918380834F5F5F4F22E030E0620E6F
:101EC000731E48305105A1F66E5F7F4F119668155D
:101ED000790509F0C1CF8091130190E02D2D30E0FC
:101EE000DC011196B695BA2FAA27B795A795A20F30
:101EF000B31FAC5EBE4FAC015695542F4427579587
:101F00004795420F531F4C5E5E4FF80190818181CF
:101F10008C9311968C931197FA01908391830E5FA5
:101F20001F4F12964E5F5F4F0617170771F7FCE0C1
:101F30001DC086E0989FA001112448595F4F8091F1
:101F40001301A82FB0E0B695BA2FAA27B795A79589
:101F5000A20FB31FAC5EBE4F90E0FA0184918D9347
:101F60009F5F4F5F5F4F9630C1F7F6E0DF0ED09274
:101F700012012C960FB6F894DEBF0FBECDBFCF91E5
:101F8000DF911F910F91FF90EF90DF90BF90AF9086
:101F90009F908F907F906F900895CF93DF93EC0187
:101FA00001C0B4DEFE01219684918823D1F7DF9130
:101FB000CF910895CF93DF93EC0102C02196A6DE66
:101FC00088818823D9F7DF91CF91089580E060E080
:101FD00090CE0F931F93CF93DF93C4E1D1E010E035
:101FE00000E8DE01802F1D928A95E9F780E0612FDD
:101FF00080DECE0160E870E01DDE1F5FC058DF4F5D
:10200000183079F7E3DFDF91CF911F910F91089599
:102010001F93DF93CF93CDB7DEB76C970FB6F894CD
:10202000DEBF0FBECDBF182FFFDC20E030E0CE01B9
:102030000196F901E450FD4FE491DC01A20FB31FBA
:10204000EC932F5F3F4F2B31310599F71C8F6CE1DB
:1020500011DEBFDF6C960FB6F894DEBF0FBECDBFAA
:10206000CF91DF911F91089580E29EE428E230E055
:10207000F9013197F1F70197D9F740E050E061E0BD
:1020800070E02BB1CB01042E02C0880F991F0A9477
:10209000E2F7382F282B2BB94C9B18C09BB1832F0C
:1020A000809589238BB94115510519F427E030E05B
:1020B00064C04130510519F428E030E05EC0423080
:1020C000510509F04EC029E030E057C04D9B17C0C4
:1020D0009BB1832F809589238BB94115510519F444
:1020E00024E030E04AC04130510519F425E030E0E9
:1020F00044C042305105A9F526E030E03EC04E9B79
:1021000017C09BB1832F809589238BB94115510549
:1021100019F421E030E031C04130510519F422E0DA
:1021200030E02BC042305105E1F423E030E025C01F
:102130004F9B17C09BB1832F809589238BB9411585
:10214000510519F420E030E018C04130510519F470
:102150002FE030E012C04230510519F420E130E0A8
:102160000CC08BB1309538233BB94F5F5F4F443083
:10217000510509F086CF2FEF3FEFC9010895EF9287
:10218000FF920F931F93DF93CF930F92CDB7DEB7DC
:102190008230910509F465C08330910509F4B7C018
:1021A000019709F0FBC037DD80E060E0A2DD8FED34
:1021B0009FE0F3DEA3DD7E010894E11CF11C54DFF7
:1021C0008C018FEF0F3F1807D1F300311105A1F5F6
:1021D000809110019091110110D220E030E044E391
:1021E00053E4DDD920E030E042E852E4E1D82EE1CA
:1021F00035E845E752E4B3D820E030E040E85FE35B
:10220000AED874DA7093890060938800E091100171
:10221000F09111011182108280E091E09093110100
:102220008093100180E29EE428E230E0F9013197CA
:10223000F1F70197D9F7B1C080E064E05ADD802F53
:10224000805D89838091100190911101B70141E077
:1022500050E0D6D18091100190911101ABDE4EDD9E
:10226000AECFD9DC80E060E044DD8BEC9FE095DE12
:1022700045DD7E010894E11CF11CF6DE8C018FEF38
:102280000F3F1807D1F30031110561F580910E0160
:1022900090910F01B2D1009188001091890020E047
:1022A00030E044E353E47BD920E030E042E852E4FC
:1022B0007FD820E030E040E85FE351D817DA600FC4
:1022C000711F7093890060938800E0910E01F09176
:1022D0000F011182108280E091E090930F018093B2
:1022E0000E015BC080E064E004DD802F805D8983A7
:1022F00080910E0190910F01B70141E050E080D133
:1023000080910E0190910F0155DEF8DCB6CF83DC91
:1023100080E060E0EEDC8AEB9FE03FDE80E062E0A0
:10232000E8DC88EA9FE039DE80E064E0E2DC8DE909
:102330009FE033DEE3DC08E210E025C03093890043
:102340002093880080ED97E0F8013197F1F701972D
:10235000D9F72F5F3F4F2417350781F740910A01C6
:1023600050910B010DC0309389002093880080EDBF
:1023700097E0F8013197F1F70197D9F721503040F4
:102380002417350781F770DE0F9739F040910C0163
:1023900050910D0122E330E0DECF91D00F90CF912C
:1023A000DF911F910F91FF90EF900895EF920F939F
:1023B000CF93DF938230910509F465C08330910596
:1023C00024F4019709F076C008C08330910509F420
:1023D00062C0419709F06EC067C01DDC80E060E01C
:1023E00088DC8EE89FE0D9DD80E062E082DC8CE76B
:1023F0009FE0D3DD80E064E07CDC8CE69FE0CDDD17
:1024000080E066E076DC87E59FE0C7DD77DC80E290
:102410009EE428E230E0F9013197F1F70197D9F70E
:1024200023DEADDEFDCFF7DB80E060E047E153E087
:1024300020E800E4EE24E39488DB60DC80E197E2AE
:10244000FE013197F1F70197D9F7E5DB80E060E015
:1024500047E157E020E800E4EE24E39476DB4EDC2D
:1024600080E197E2FE013197F1F70197D9F7D3DBCD
:1024700080E060E047E15BE020E800E4EE24E394E4
:1024800064DB3CDC02C0C8E2D0E0EEDD0F9709F06F
:10249000CACF15D00FC0BFDB80E060E02ADC8AE441
:1024A0009FE07BDD2BDC06C08AE06AE022DC87E46B
:1024B0009FE073DDDF91CF910F91EF900895ABDB3B
:1024C0001DDC80E062E015DC86E39FE066DD80E0F5
:1024D00064E00FDC8AE29FE060DD80E066E009DC1A
:1024E00087E19FE05ADD0ADCBFDD60DFFCCF8FE0D3
:1024F0008AB984B1866084B98FEF8BB9E0E8F0E0E7
:10250000808183688083E1E8F0E080818C60808353
:1025100080910C0190910D0120910A0130910B01E5
:10252000820F931F62E070E00AD07093890060937D
:1025300088008FEA6DDDC3DF80E090E0089597FBAF
:10254000092E07260AD077FD04D00CD006D0002033
:102550001AF4709561957F4F0895F6F790958195DF
:102560009F4F0895AA1BBB1B51E107C0AA1FBB1FA9
:10257000A617B70710F0A61BB70B881F991F5A950F
:10258000A9F780959095BC01CD0108952F923F92B7
:102590004F925F926F927F928F929F92AF92BF9273
:1025A000CF92DF92EF92FF920F931F93CF93DF931F
:1025B000CDB7DEB7CA1BDB0B0FB6F894DEBF0FBE7C
:1025C000CDBF09942A88398848885F846E847D84C9
:1025D0008C849B84AA84B984C884DF80EE80FD80CB
:1025E0000C811B81AA81B981CE0FD11D0FB6F89441
:1025F000DEBF0FBECDBFED0108956627772710C05F
:10260000FB01DC010D900020E9F71197415050408B
:1026100028F0019000200D92C9F708951C920895AA
:10262000A0E0B0E0E5E1F3E1B7CFEC015B016115BB
:10263000710519F0FB0191838083F9908F2D90E053
:1026400046D1892BD1F7FDE2FF1621F4F990EE2453
:10265000E39405C02BE2F21609F4F990EE248E0102
:1026600001501040C80163EF7FE043E050E037D1F4
:10267000892BF9F48E010E5F1F4FC80166EF7FE0D2
:1026800045E050E02CD1892B19F48E01095F1F4FD2
:10269000A114B10419F0F50111830083E0FC04C01A
:1026A00070E090E080E813C070E090E080E86FEFA9
:1026B00004C1C8016BEF7FE043E050E010D1892BEB
:1026C00069F4A114B10429F470E090E080EC6FE7A4
:1026D000F4C02296F501D183C083F6CF88249924D3
:1026E00040E050E060E070E0EF2DE053EA30A0F50C
:1026F000F2E0EF2A8E2D90E09C0128703070E2FE0F
:1027000006C0232B79F50894811C911C2BC0232B28
:1027100019F0089481089108DB01CA0112E0880FC2
:10272000991FAA1FBB1F1A95D1F7480F591F6A1F7F
:102730007B1F440F551F661F771F4E0F511D611DD4
:10274000711D483929E9520729E9620729E1720711
:1027500048F084E0E82A06C0EE3F31F4E3FC39C0DB
:1027600098E0E92AF990C0CFE53311F0E53189F519
:1027700029912D3219F4E0E1EE2A05C02B3219F02F
:1027800081E090E003C0299182E090E0E22FE053E5
:10279000EA3018F0C81BD90B1CC020E030E0FCE088
:1027A00020383F075CF4C901880F991F880F991FD3
:1027B000280F391F220F331F2E0F311DE991E053CF
:1027C000EA3068F3E4FE03C0309521953F4F820E56
:1027D000931ECE2CDD24E1FE07C0A114B10421F02C
:1027E0002197F501D183C083CB01BA0194D07B013D
:1027F0008C01F3E0CF22DD2423E0C216D10421F4C2
:1028000017FB109517F9109557016801C801B7011A
:1028100020E030E040E050E07AD0882309F449C05D
:1028200097FE0DC022E1E22E20E1F22E90948194D9
:1028300091089394C0E2D0E000E010E012C09AE268
:10284000E92E90E1F92EF6CFF701259135914591CA
:102850005491C601B5010E94D8095B016C018C1A24
:102860009D0A8C169D0684F7D595C7950F5F1F4F5F
:102870000630110529F08CEF9FEFE80EF91EF1CF1D
:10288000C501D6017C018D018C2D880F8D2D881FEF
:102890008F3F49F0C601B50120E030E040E050E054
:1028A00036D0882331F482E290E09093160580932D
:1028B00015057E2D9F2D802F612F272F392F482F13
:1028C000562FB901CA01CDB7DEB7ECE081CE911128
:1028D00083C0803219F089508550D0F70895FB01EC
:1028E000DC014150504088F08D9181341CF08B35D3
:1028F0000CF4805E659161341CF06B350CF4605E05
:10290000861B611171F3990B0895881BFCCF40D091
:1029100008F481E00895E89409C097FB3EF490958F
:102920008095709561957F4F8F4F9F4F9923A9F0A8
:10293000F92F96E9BB279395F69587957795679537
:10294000B795F111F8CFFAF4BB0F11F460FF1BC07B
:102950006F5F7F4F8F4F9F4F16C0882311F096E90E
:1029600011C0772321F09EE8872F762F05C06623BC
:1029700071F096E8862F70E060E02AF09A95660F75
:10298000771F881FDAF7880F9695879597F908952E
:10299000990F0008550FAA0BE0E8FEEF1616170670
:1029A000E807F907C0F012161306E407F50798F0D8
:1029B000621B730B840B950B39F40A2661F0232BF1
:1029C000242B252B21F408950A2609F4A140A6956D
:1029D0008FEF811D811D0895992788270895F89408
:0229E000FFCF27
:1029E200000000000000000000013E007F00000126
:0229F2000001E2
:00000001FF
